:100000000C94E5000C940D010C940D010C940D0161
:100010000C940D010C940D010C940D010C940D0128
:100020000C940D010C940D010C9413160C94821673
:100030000C940D010C940D010C940D010C940D0108
:100040000C940D010C940D010C940D010C940D01F8
:100050000C940D010C940D010C940D010C94C91518
:100060000C940D010C940D010C940D010C940D01D8
:100070000C940D010C940D010C940D010C940D01C8
:100080000C940D010C940D010C940D010C940D01B8
:100090000C940D010C940D010C940D010C940D01A8
:1000A0000C940D010C940D010C940D01080B000231
:1000B0000202000009040000010202000005240001
:1000C0001001052401010104240206052406000193
:1000D0000705810310004009040100020A00000026
:1000E00007050202400000070583024000000403E8
:1000F000090412010002EF0201406D0484C00001F6
:10010000010203014C6F676974656368004735300D
:1001100032204845524F2047616D696E67204D6F10
:10012000757365000000000200090F000003040160
:10013000000C0000000000000000000000000000B3
:1001400000000000000000250028002B002E0031D8
:100150000000000000240027002A002D00300004C9
:10016000040404040304050202020204030202025E
:100170000206060606060604040202020404040837
:10018000020110408040102040804080080204019D
:1001900080402010020110801020404020050109FD
:1001A00002A10185010509190129081500250195FC
:1001B00008750181020501093009310938158125C9
:1001C0007F750895038106C0E71811241FBECFEF85
:1001D000DAE0DEBFCDBF23E0A4EAB1E001C01D92AA
:1001E000A030B207E1F711E0A0E0B1E0EAE4F3E407
:1001F00002C005900D92A43AB107D9F710E0C5EE00
:10020000D0E004C02197FE010E94561FC43ED107D2
:10021000C9F70E94351A0C94A3210C9400008CBDE0
:100220009DBD0895CF93DF93FC01818190912402BD
:10023000482F490F5527551F483051059CF5A2817D
:10024000B381109709F520E232E0338322832081C5
:10025000209322028093230280912502820F8083C3
:1002600020912602A22FB09127028A2F821B891784
:10027000E8F481813D91C82FD0E0C45FDE4F388320
:100280008F5F8183F2CFD90118962D913C911997F8
:1002900021153105C1F720E232E019963C932E93E7
:1002A0001897D5CF80E0DF91CF91089581E0FBCF03
:1002B00090E0FC01E258FE4F2491815A9E4FFC01D0
:1002C0008491882399F090E0880F991FFC01EF5AE0
:1002D000FE4FA591B491FC01ED5BFE4F8591949189
:1002E0008FB7F894EC91E22BEC938FBF0895FC014B
:1002F0008091CE01882311F13FB7F89482E080937A
:10030000E9002091F200822F90E01816190614F4EB
:1003100081E090E0882339F0289844E64093CD01AD
:100320004091F1004083222339F02091F200211105
:1003300003C02BE62093E8003FBF08958FEF9FEFA7
:1003400008953FB7F8948091C9019091CA01A09196
:10035000CB01B091CC0126B5A89B05C02F3F19F069
:100360000196A11DB11D3FBFBA2FA92F982F882735
:10037000BC01CD01620F711D811D911D42E0660F10
:10038000771F881F991F4A95D1F708958F929F92E2
:10039000AF92BF92CF92DF92EF92FF924B015C013E
:1003A0000E94A1016B017C010E94A1016C197D09D1
:1003B0008E099F09683E734081059105A8F321E0ED
:1003C000821A9108A108B10888EEC80E83E0D81EF1
:1003D000E11CF11C81149104A104B10429F7FF90E0
:1003E000EF90DF90CF90BF90AF909F908F90089547
:1003F0002FB7F8946091C5017091C6018091C70133
:100400009091C8012FBF08954091B3015091B4015C
:100410002091B1013091B20142175307B4F4909189
:10042000E8009570E1F39091E80092FD19C0809387
:10043000F1008091B3019091B40101968F739927D7
:10044000892B19F48EEF8093E8008091B30190918D
:10045000B40101969093B4018093B30181E00895B3
:1004600080E00895DF92EF92FF920F931F93CF9356
:10047000DF93D82E8A01EB017B01E40EF51ECE1529
:10048000DF0559F0D7FE12C0FE0184910E940402DC
:1004900021968111F4CF0FEF1FEFC801DF91CF91AB
:1004A0001F910F91FF90EF90DF9008958881EECF1C
:1004B0002FB7F89487708093E9009091E800892F16
:1004C000807295FF04C09091F20080E4891B2FBFD9
:1004D00008957F928F929F92AF92BF92CF92DF92B8
:1004E000EF92FF920F931F93CF93DF93C82E8B0150
:1004F0007A018091CE01811110C08FEF9FEFDF91C3
:10050000CF911F910F91FF90EF90DF90CF90BF9010
:10051000AF909F908F907F9008958091B70180FF5A
:1005200005C08091E00082608093E000CE2DDF2D39
:10053000D12C8AEFB82E8C2D8770982E8C2D80723E
:10054000882E8C2D8074782E9AE3A92E209719F48A
:10055000DD2009F452C08C2D0E94580281110AC07E
:10056000BA94BB2051F261E070E080E090E00E941C
:10057000C601ECCF8C171D0611F00CF08C2F9FB725
:10058000F8949092E9002091E80025FD02C09FBFF9
:10059000DDCF282F30E0C21BD30B882029F08150FB
:1005A000A0F01092F100FBCFF801C7FC0AC0815007
:1005B00050F041914093F100FACF44914093F10003
:1005C00031968150D0F7020F131FDD2021F0A09249
:1005D000E800D12CDCCF8091E80085FD07C0A09217
:1005E000E800DD24D394209791F2F3CF209779F699
:1005F000772069F2A092E800CACF5D9884E68093E4
:10060000B601C7017CCF615030F02091F100FC01B0
:1006100020830196F8CF289884E68093CD01089531
:100620008091A90181110DC082E08093A50184E031
:100630008093A6011092A8011092A70181E08093F7
:10064000A90185EA91E008951F93CF93DF9300D02D
:1006500000D01F92CDB7DEB79091470299838A836D
:100660006B834C838091310281112AC011E0109379
:100670002402109325028AE292E09093270280934D
:10068000260210922902109228028BE391E09093A7
:1006900021028093200210922C0210922B021092C1
:1006A0002E0210922D0210932F021093300281EC33
:1006B00080932A020E9410030E94120110933102BB
:1006C00081E08D8341E050E0BE016B5F7F4F809100
:1006D00023020E94690297FD0AC08091230244E030
:1006E00050E0BE016F5F7F4F80640E9469020F90EF
:1006F0000F900F900F900F90DF91CF911F91089561
:100700009091470280958923981739F0809347028A
:1007100040E060E080E00C9424030895909147024B
:10072000892B981739F08093470240E060E080E021
:100730000C94240308950F931F93CF93DF931F927C
:10074000CDB7DEB782E0898342E450E06CEA70E026
:1007500080E80E9432020E941003DC0112960D9183
:100760001C910115110589F0D801ED91FC910280D1
:10077000F381E02DBE016F5F7F4FC801099597FDA2
:1007800004C0F80100851185ECCF89810F90DF91BD
:10079000CF911F910F910895CF93DF93EC0180913A
:1007A0000B01882331F083E00E94690218161906B4
:1007B00034F081E090E09B838A8380E090E0DF91D9
:1007C000CF910895CF93DF931F92CDB7DEB76983A2
:1007D000DC01ED91FC910280F381E02D41E050E0DD
:1007E000BE016F5F7F4F09950F90DF91CF91089504
:1007F00083E08093E9008091F200882319F08AE376
:100800008093E800089583E00E94580290E00895E4
:10081000CF93DF931F92CDB7DEB7FC01848595851A
:1008200097FD08C02FEF3FEF358724870F90DF91AA
:10083000CF910895CE0101960E947701019719F496
:10084000898190E0F3CF8FEF9FEFF0CF0F931F934D
:100850000E94F8016093D8017093D9018093DA0166
:100860009093DB0180ED91E00E94080497FF1DC08A
:100870000E94F8010091D8011091D9012091DA016C
:100880003091DB01601B710B820B930B0091D40143
:100890001091D5012091D6013091D70160177107D1
:1008A00082079307F8F28FEF9FEF1F910F91089542
:1008B0000F931F93CF93DF931F92CDB7DEB78C01B9
:1008C000FC018485958597FF0BC0CE0101960E949F
:1008D0007701019771F4898190E0F8019587848709
:1008E000F801848595850F90DF91CF911F910F912D
:1008F00008958FEF9FEFF1CFFC018485958597FDDB
:100900000BC09FB7F89482E08093E9008091F200D9
:100910009FBF90E0019608959FB7F89482E080937E
:10092000E9008091F2009FBF90E00895DC01FB0197
:1009300012962C911297848195812817190641F4FB
:1009400091818081813A31F49D7F81E0913009F07D
:1009500080E008958132E1F79B3029F482811F966F
:100960008C9381E008959A3099F7828150968C9308
:10097000F8CFDC01FB0188E4808389E4818384E48F
:1009800082831D969C911D979F709F5B93831D96FC
:100990008D919C9124E0969587952A95E1F78F702B
:1009A0008F5B848385E00895EF92FF920F931F93EE
:1009B000CF93DF93FB012081213871F5238122320F
:1009C00059F5DC0112964C912481358142171306AA
:1009D00019F5EC010B851C85F12CE12C0115110595
:1009E00089F0F801448155816281738180E80E9419
:1009F00032028F3F980749F0E80EF91ED8010D9199
:100A00001C91ECCF81E08F87C701DF91CF911F91BF
:100A10000F91FF90EF90089590E080E0F6CFCF9394
:100A2000DF93CDB7DEB769970FB6F894DEBF0FBE80
:100A3000CDBFFC01DB018C918F5F8C939E012D5FFC
:100A40003F4F8DE0D9011D928A95E9F729E029836E
:100A500084E08A8391E09D8383E08E832A8721E26C
:100A60002B879C879D879F8722E2288B27E02B8BF3
:100A700025E02C8B8E8B20E430E0388F2F8B998FE4
:100A800082818B8395858685998B8A8B838180680B
:100A90008D8B49E150E0BE016F5F7F4F80E00E9487
:100AA000320269960FB6F894DEBF0FBECDBFDF915C
:100AB000CF910895CF93DF93EC018A819B81DC0174
:100AC000ED91FC910480F581E02D6A8509958A8578
:100AD000813439F4EA81FB81EA58FF4F80818460D8
:100AE00080831A861B861C861D861E861F86188A92
:100AF00080E0DF91CF91089581E0693009F080E0D6
:100B00000895FC01828508950F931F93CF93DF937F
:100B1000FC018B01EA0180819181892B31F1928165
:100B2000992349F128813981232BF9F0D8012D919E
:100B30003C91D9014C918381682F691B770B80818F
:100B40009181860F971FDC014C93828181508283B3
:100B500088819981019799838883D8018D919C918F
:100B6000119701968D939C93DACF80E0DF91CF911E
:100B70001F910F9108958381828381E0F7CFDF92E7
:100B8000EF92FF920F931F93CF93DF93EC0185E0D9
:100B9000E62EF12CFE01869FE00DF11D11249085BB
:100BA00096FF24C0192F177001E085E0D82E8FEF33
:100BB000800F8F3008F001E0602F70E0062FD69E86
:100BC000F001D79EF00D1124EC0FFD1F8085869556
:100BD000869586958770181701F16F5F7F4F60319A
:100BE00068F38D81811302C011501D8385E08E9DB5
:100BF000F0018F9DF00D1124EC0FFD1F108681E098
:100C0000818712862296D783C683DF91CF911F9169
:100C10000F91FF90EF90DF900895CE010E94BF05E5
:100C2000C6CFFC0120812EBD9B012150310941F02E
:100C300051810DB407FEFDCF4EB55EBD4193F5CF9A
:100C400061507109860F971F0DB407FEFDCF2EB5B9
:100C5000FC0120830895FC0121E0613499F49C019A
:100C6000255B3F4F61E0AC014E5F5F4F15866687A5
:100C700017865487438735962E173F07B9F7FC012F
:100C8000158208953585631729F02F5F3596203139
:100C9000C9F70895622F0C94BF05CF93DF93FC0131
:100CA00067FD12C0283080F4442319F08581873015
:100CB00059F0EF01A1E0B0E08D85882349F111964C
:100CC0002596A031B105C1F780E018C085E08A9F64
:100CD000E0018B9FD00D1124CE0FDF1F442389F03C
:100CE00081E4888785818F5F858325E02A9FC00105
:100CF0002B9F900D1124E80FF91F8085DF91CF9174
:100D0000089581E08887F1CF2770687B622B0FC040
:100D10006623E1F26770660F660F660F4423A1F346
:100D2000606485818F5F85838770687F682B25E08D
:100D30002A9FC0012B9F900D1124E80FF91F608797
:100D4000862FDCCFFC0121E0611102C006960895D8
:100D50003585631739F02F5F35962031C9F790E05C
:100D600080E00895069635E0239F800D911D1124A3
:100D7000089581E008953F924F925F926F927F9223
:100D80008F929F92AF92BF92CF92DF92EF92FF929B
:100D90000F931F93CF93DF9300D000D0CDB7DEB772
:100DA0006C017A8369835C834B8384E0482E36012F
:100DB00082E1680E711C93E0392E5601A7E0AA0E5D
:100DC000B11C12E0552453944601B0E18B0E911CE6
:100DD00029813A812115310509F4CDC0F60180A1A0
:100DE0008230F1F0A8F5882309F457C0813091F7DB
:100DF000AE014F5F5F4FBE016D5F7F4FC5010E9427
:100E00008405882309F4B7C0D6011596ED91FC91AD
:100E10001697808191968C939197818192968C936D
:100E2000F6017682658230A2D60192968C919297D5
:100E3000843011F493961C92F60181A18250848330
:100E400025813681308727838287818740A205C02C
:100E5000833051F3843009F0BDCFD60192968C9146
:100E60009297843019F1853009F44BC0823009F033
:100E700075C0AE014F5F5F4FBE016D5F7F4FC50113
:100E80000E948405882309F476C0F601858984A32D
:100E9000F6019682858210A29BCF1483858196816C
:100EA000908787831287118750A2A2CFAE014F5F30
:100EB0005F4FBE016D5F7F4FC5010E94840588238F
:100EC00009F459C0D60155968C915597833001F796
:100ED00056968C9156978130D9F698969C91989712
:100EE00057968C91992351F0882391F2F60153A2E1
:100EF000928996A3938997A385A3CACF823041F69E
:100F0000F5CFAE014F5F5F4FBE016D5F7F4FC501F3
:100F10000E948405882379F1D60193968C9193974A
:100F2000882309F4B5CF12968D919C91009709F40E
:100F3000AFCFDC01ED91FC910190F081E02D7401C7
:100F4000D60195960C91959797962C919797969692
:100F50004C91969794966C9109959ACFF601858558
:100F60008823F9F0813041F1D6011E968D919C9134
:100F7000892B09F48DCF0F900F900F900F90DF9178
:100F8000CF911F910F91FF90EF90DF90CF90BF9086
:100F9000AF909F908F907F906F905F904F903F9019
:100FA000089591968C9191978250990B1F969C93DE
:100FB0008E931E971D965C9229813A818B819C812C
:100FC000782F692FF601468557854115510581F027
:100FD00001962115310539F041505109578746874F
:100FE00021503109EDCF1A8219827B836C83BCCFEB
:100FF0003A8329839C838B831586B6CF0895EF921D
:10100000FF92CF93DF93FC01E7018289823021F1C7
:101010006787408B9B8193709330F1F49A8197FF9F
:101020001BC02E81308D321708F4208F282F30E01E
:10103000D901AA0FBB1FA20FB31FAE0FBF1F9F7016
:1010400017969C9317979C8118969C93189794E0F9
:1010500019969C938F5F828BDF91CF91FF90EF90D9
:101060000895EF92FF920F9302970E94FF070F914E
:10107000FF90EF900895FC018789089570E0660F56
:10108000771F860F971FFC0185859685089581E05F
:10109000623009F080E0089581E0633009F080E07B
:1010A0000895FC0186810895CF93DF93EC018C8134
:1010B0009D81DC01ED91FC910480F581E02D6E8134
:1010C00009951F86188A81E08A8B1E821B8A1C8ADA
:1010D0001D8A1E8A1F8A80E0DF91CF9108952E9885
:1010E00008952E9A089570E0660F771F860F971F58
:1010F000FC015687458781E008956423842391E0AD
:1011000009F490E081E0611101C080E0981731F0AE
:10111000842F61110C948E030C9480030895EF9238
:10112000FF920F931F93CF93DF937C01E80141E07F
:101130006881FC0185810E947D0842E06881F70199
:1011400085810E947D0844E06881F70185810E94C5
:101150007D0848E06881F70185810E947D0840E1B3
:101160006881F70185810E947D0889819A810097B5
:1011700021F42B813C81232B29F08093C1018B81A9
:101180008093C2014D81442321F060E080E00E9401
:1011900024038881F7018583888190E09683858385
:1011A000DF91CF911F910F91FF90EF9008950895D7
:1011B00080E00895089580E0089508950F931F93A7
:1011C000CF93DF93D82FC62F8A0180E591E00E944C
:1011D0000F010E946F08D260DEBDF8018C2F8823BA
:1011E00039F00DB407FEFDCF91919EBD8150F7CF30
:1011F000C00FD12FD11D0DB407FEFDCF0E94710885
:10120000CE01DF91CF911F910F9108950F931F93FE
:10121000CF93DF9300D0CDB7DEB7182F062F80E530
:1012200091E00E940F010E946F08126019830A83E7
:1012300062E070E0CE0101960E9411060E947108E2
:101240000F900F90DF91CF911F910F9108959F9272
:10125000AF92BF92CF92DF92EF92FF920F931F93C4
:10126000CF93DF936C01C42FD22F99249394E62E51
:10127000F12CEE0CFF1CE80EF91E86E5E80EF11CC1
:10128000A42EB12CABE2AA0EB11CAA0CBB1CAC0C58
:10129000BD1CF70180819181DC01ED91FC91028000
:1012A000F381E02D202F4D2F6C2F0995182F803EB4
:1012B000C9F5C1112BC061E088EE0E94060966E6FF
:1012C00070E080E090E00E94C601F701808191818A
:1012D000DC01ED91FC910190F081E02D202F4D2F4C
:1012E0006C2F0995182F8D30D1F58FEF890D833034
:1012F000F8F0C11137C061E088EE0E94060966E689
:1013000070E080E090E00E94C6011CC0F501808181
:101310009181DC01ED91FC910284F385E02D6D2F2C
:101320000995D3CF8D3061F48FEF890D833050F460
:1013300064E670E080E090E00E94C6019394A9CF3B
:10134000882319F2812FDF91CF911F910F91FF9088
:10135000EF90DF90CF90BF90AF909F90089588233B
:1013600089F3C7CF8C2F90E08B96880F991F8C0D37
:101370009D1DFC0180819181DC01ED91FC91028435
:10138000F385E02D6D2F0995DDCF8EBD00000DB4E6
:1013900007FEFDCF8EB50895CF93C82F80E591E06D
:1013A0000E940F010E946F088C2F0E94C50980E0E7
:1013B0000E94C509C82F0E9471088C2FCF910895F3
:1013C0008F929F92AF92BF92CF92DF92EF92FF9255
:1013D0000F931F93CF93DF93882E962E5A010E946E
:1013E000F8016B017C0128E8C20E23E1D21EE11C4A
:1013F000F11C10E000E0D0E0C0E098280E94F80165
:101400006C197D098E099F0997FF1EC0692D80EF19
:101410000E9406090E94F8016C197D098E099F0936
:1014200097FF09C088EC0E94CC0987FFF3CF60E8E2
:1014300088EC0E94060988EF0E94CC09C82FCF7063
:10144000C43081F0CE30B9F08C2FDF91CF911F9155
:101450000F91FF90EF90DF90CF90BF90AF909F9053
:101460008F9008950F5F1F4FA114B10439F20A1530
:101470001B0521F6E9CFDF5FD33009F0BFCFE4CF02
:10148000AF92BF92CF92DF92EF92FF920F931F9392
:10149000CF93DF93EC01B62EA42E69010E94A20621
:1014A0007C0186EDE114F10409F447C0D701ED9108
:1014B000FC91119787ED309709F43FC013969C91EA
:1014C00080E0981731F02081A21629F033968F5FC3
:1014D000F8CFF0E0E0E0D601ED93FC938BED309790
:1014E00061F1228126952695203108F02FE081E0D8
:1014F00090E0A0E0B0E004C0880F991FAA1FBB1FB6
:101500002A95D2F70197F801918380836B2D80EEA5
:101510000E94060988ED0E94CC09D70114969C917F
:10152000682F697F992329F0CA58DF4F688162606C
:10153000682B88ED0E94060980E0DF91CF911F9112
:101540000F91FF90EF90DF90CF90BF90AF900895F4
:1015500088EF0E94CC09807C8034B1F018F4882395
:1015600001F10895803819F0803CC9F0089588EDA4
:101570000E94CC0981FD0DC069EC88ED0E9406092E
:1015800082E08093CF01089588ED0E94CC0981FD0F
:10159000F3CF6BEC88ED0E94060983E0F2CF81E087
:1015A000F0CF61ED88ED0E9406091092CF010895F9
:1015B0002F923F924F925F926F927F928F929F9263
:1015C000AF92BF92CF92DF92EF92FF920F931F9351
:1015D000CF93DF937B013A016901F901A080B180CB
:1015E000FB013180F90111821082FB01828160E1EF
:1015F00081FD60E288EE0E9406092A2CA301F70112
:10160000608180E00E94E009582EF6E08F1310C040
:1016100088EF0E94CC09F70192819D7F84FF926040
:10162000928360E191FD60E288EE0E940609E6CFB8
:10163000811150C088EC0E94CC0982FF5FC080E31A
:101640000E94CC09482E8A151B0411F008F0422C88
:10165000F60180819181E501C81BD90BD7FF02C03B
:10166000D0E0C0E0842C912C8C169D060CF4E40193
:1016700080E591E00E940F010E946F0888E00E94BF
:10168000C509AE0170E060E0C8010E9459212097B1
:1016900021F0BE01C8010E9411060C0F1D1F0E94FF
:1016A000710864E088EC0E940609F601808191814E
:1016B000880E991E91828082431420F08A149B0424
:1016C00008F49CCF88EF0E94CC09F701928184FB3B
:1016D00091F99283852DDF91CF911F910F91FF900A
:1016E000EF90DF90CF90BF90AF909F908F907F90C2
:1016F0006F905F904F903F902F90089580EF582EFD
:10170000E9CFAF92BF92CF92DF92EF92FF920F9309
:101710001F93CF93DF9300D000D0CDB7DEB77C010D
:10172000690158011C821B821A8219828E010F5F87
:101730001F4F9E012D5F3F4F0E94400A811109C03B
:1017400049815A816B817C8185019601C7010E9484
:10175000D80A0F900F900F900F90DF91CF911F91AB
:101760000F91FF90EF90DF90CF90BF90AF900895D2
:101770002F923F924F925F926F927F928F929F92A1
:10178000AF92BF92CF92DF92EF92FF920F931F938F
:10179000CF93DF93CDB7DEB765970FB6F894DEBF72
:1017A0000FBECDBF3C01342E222E402EED8AEAA47E
:1017B000FBA4188A1F861E861D868E01035F1F4F9D
:1017C0009E01215F3F4F40E00E94400A582E811148
:1017D00039C139822A824B822D892C83DE82CD82C7
:1017E000B886AF82AE014F5F5F4F68E080E20E9433
:1017F000DE084D855E8560E080E10E94E009811190
:101800003FC1E114F10409F453C00F851889D801D0
:1018100012968C91129737FE51C0826012968C936B
:10182000650144244394C114D10409F42EC19C865B
:101830008B864D855E856F85788987019E01255F42
:101840003F4FC3010E94D80A582EB6E08B130EC03A
:1018500088EF0E94CC09EF85F88985FB882780F9FD
:101860008425928180FB91F99283DDCF8111EAC0BA
:10187000ECA5FDA53097A1F06B857C850190F081EA
:10188000E02D0190F081E02DC5018C199D099A870A
:1018900089879E01275F3F4FA7018CA59DA50995CC
:1018A0008B859C85C81AD90A8815990508F0BBCF85
:1018B0004D855E8537FEE0C080EADFC0816012960C
:1018C0008C93129711966C908FEF860D803408F0F0
:1018D000D9C02D843E840E94F8019B01AC01285799
:1018E0003C4E4F4F5F4F298B3A8B4B8B5C8BD80113
:1018F00012968C9160E880FF60E488EE0E940609F1
:10190000512C712C8114910409F48BC0530186145D
:10191000970408F45401AD8AA7016A2D80E10E9462
:10192000DE086A2D88E30E940609F8016081606282
:1019300080EF0E94060988EC0E94CC0987FFFBCF4C
:1019400060E888EC0E94060988EF0E94CC098F703D
:10195000582E412CD12CC12C552021F10E94F80188
:1019600029893A894B895C89621B730B840B950B1F
:1019700097FF18C036E0531609F43FC04EE05416E6
:10198000B1F054E0551209C08FEFC81AD80A2114DB
:10199000310489F02C143D0471F460E088E30E9466
:1019A000060941C08A189B08EA0CFB1CABCF439484
:1019B00093E0491691F360E088E30E940609D7019D
:1019C0006C9180E10E9406096D8988E30E940609F6
:1019D000F8016081606280EF0E94060988EC0E9435
:1019E000CC0987FFFBCF60E888EC0E94060988EFEE
:1019F0000E94CC098F70582EAFCF88EF0E94CC097F
:101A000085FB882780F9A1E08A27F801928180FB75
:101A100090F9928360E890FF60E488EE0E940609E6
:101A2000CACF5110BACF88EF0E94CC09D8011296C4
:101A30009C91129785FB90F912969C934D855E853B
:101A40005520D1F0852D65960FB6F894DEBF0FBEF8
:101A5000CDBFDF91CF911F910F91FF90EF90DF905D
:101A6000CF90BF90AF909F908F907F906F905F903E
:101A70004F903F902F90089580E860E00E94E00929
:101A8000582EE0CF8AED582EDDCF4D855E8555204E
:101A900009F412CFD7CF8F929F92AF92BF92CF927D
:101AA000DF92EF920F931F931F921F921F930F933A
:101AB0004A015A01D12CC12C32E0E32E022F26E03C
:101AC00040E80E94B80B0F900F900F900F901F915D
:101AD0000F91EF90DF90CF90BF90AF909F908F903D
:101AE00008958F929F92AF92BF92CF92DF92EF9222
:101AF0000F931F921F923F932F934A015A01D12CAB
:101B0000C12CEE24E39400E026E040E80E94B80BEC
:101B10000F900F900F900F900F91EF90DF90CF905C
:101B2000BF90AF909F908F9008958F929F92AF92A9
:101B3000BF92CF92DF92EF920F93CF931F921F929B
:101B40001F921F92912C812CB12CA12CD12CC12C35
:101B5000E12C062F25E040E060E00E94B80BC82F82
:101B60006CE271E080E090E00E94C6010F900F905F
:101B70000F900F908C2FCF910F91EF90DF90CF901F
:101B8000BF90AF909F908F9008952F923F924F9269
:101B90005F926F927F928F929F92AF92BF92CF92FD
:101BA000DF92EF92FF920F931F93CF93DF93CDB706
:101BB000DEB768970FB6F894DEBF0FBECDBF1B8AA5
:101BC00038E03C8B3CE33D8B8A3F3FEF9307D9F4F1
:101BD00016ED812F68960FB6F894DEBF0FBECDBF0D
:101BE000DF91CF911F910F91FF90EF90DF90CF90F9
:101BF000BF90AF909F908F907F906F905F904F902D
:101C00003F902F900895222E642E362E7C01DC0109
:101C100016960D911C911797CE01439617969C939B
:101C20008E9316971A962C939E012F5F3F4F42E199
:101C300050E060E0C7010E94710D782EF701178314
:101C40000683182F8111C5CF49845A848B849C84C4
:101C5000FD81FF8B3E81388F670186E5C80ED11C60
:101C600056011E8AD5018D919D915D010097D1F598
:101C7000BE89BF5FBE8BB031A9F7F601819191910A
:101C80006F01009709F06EC07394F0E17F12F5CFF9
:101C9000F7018681978117ED892B09F49ACF228667
:101CA000262D40E0632DC7010E944D06082F14ED3C
:101CB000882309F48ECF682FC7010E94A2060097DF
:101CC00009F486CFDC0114962C92602FC7010E9484
:101CD000950D182F882309F47CCF602FC7010E942F
:101CE0002B0677CFDC01ED91FC910084F185E02D8E
:101CF00009958111BDCFF501929182918F01DC018F
:101D0000ED91FC910088F189E02D688D099588237B
:101D100009F4AECFF80180819181DC01ED91FC9155
:101D20000484F585E02DA401B2010995882361F0B2
:101D3000022D262D432D6E89C7010E942709182FD9
:101D4000813D09F495CF45CFF80180819181DC0177
:101D5000ED91FC910684F785E02D6F89099581113D
:101D6000E7CF86CFDC01ED91FC910084F185E02D79
:101D70000995811189CFF601929182918F01DC0141
:101D8000ED91FC910088F189E02D688D0995811114
:101D90000DC0022D262D432D672DC7010E94270956
:101DA000182F877F813D09F014CF6ECFF801808115
:101DB0009181DC01ED91FC910484F585E02DA40175
:101DC000B2010995811160CFF80180819181DC0118
:101DD000ED91FC910684F785E02D6F8909958823A4
:101DE000C1F252CF8F929F92AF92BF92CF92DF9269
:101DF000EF920F93C42ED12C1F921F921F921F920D
:101E0000912C812CB12CA12CE12C062F21E043E256
:101E1000FC016285828193810E94B80B0F900F9024
:101E20000F900F900F91EF90DF90CF90BF90AF90F9
:101E30009F908F9008958F929F92AF92BF92CF9272
:101E4000DF92EF920F93C62ED12C1F921F925F93B9
:101E50004F9324E0822E912C34E0A32EB12CE12C60
:101E600000E020E043EAFC016285828193810E94C8
:101E7000B80B0F900F900F900F900F91EF90DF9095
:101E8000CF90BF90AF909F908F9008958F929F9228
:101E9000AF92BF92CF92DF92EF920F93C42ED12CCC
:101EA0001F921F921F921F92912C812CB12CA12C5A
:101EB000E12C062F23E043E2FC01628582819381BD
:101EC0000E94B80B0F900F900F900F900F91EF9012
:101ED000DF90CF90BF90AF909F908F900895CF925A
:101EE000DF92EF92FF921F93CF93DF93EC01162FB7
:101EF0007A01FA0180819181A281B3818130F3E07E
:101F00009F07F1E0AF07B105C9F170F48115E1E079
:101F10009E07AE07B10509F450C081309140A14041
:101F2000B10561F180E041C0833021E0920720E1FA
:101F3000A207B10529F083309340A041B10591F784
:101F4000412F64E1CE010E94F20E412F60E1CE01EB
:101F50000E94F20E64E170E080E090E00E94C60111
:101F60006A85F7012181269521706770412F8A814A
:101F70009B810E94C50D1092A401D4CF8091A40131
:101F80008111D0CF412F61E1CE010E94F20E412F8D
:101F900060E1CE010E94F20E412F64E0CE010E946A
:101FA000460F81E08093A40181EBDF91CF911F91D7
:101FB000FF90EF90DF90CF900895462F61E1CE0122
:101FC0000E94F20E412F60E1CE010E94F20E1092AB
:101FD000A4018A8587701770880F880F880F182BC7
:101FE00009F4A0CFEA80FB806701F6E5CF0ED11C93
:101FF000D0E0C0E0D6018D919D916D010097C1F0B8
:10200000DC01ED91FC910084F185E02D0995181318
:102010000FC0AB96CC0FDD1FCE0DDF1D88819981DF
:10202000DC01ED91FC910480F581E02D09957ACFDA
:102030002196C031D105F1F675CFCF92DF92EF92A4
:10204000FF920F931F93CF93DF93CDB7DEB72E97F9
:102050000FB6F894DEBF0FBECDBFFC012089211161
:1020600011C010E0812F2E960FB6F894DEBF0FBE80
:10207000CDBFDF91CF911F910F91FF90EF90DF9037
:10208000CF9008957C010E94F801F7010485158521
:1020900026853785601B710B820B930B97FDE1CF73
:1020A00081E090E09E878D878E010F5F1F4F9E011C
:1020B000235F3F4F41E06285828193810E94810BC3
:1020C000182F811121C082E0D82E01E089818D2155
:1020D00039F119861A861B861C86AE01475F5F4F51
:1020E000602FC7010E941B0FC82E811119C0AE01BD
:1020F000475F5F4F602FC7010E946F0F813B19F050
:10210000882371F0C82E1C2D0E94F8016C597F4F56
:102110008F4F9F4FF7016487758786879787A2CF78
:10212000DD0C0F5F083091F601E0F7018385801721
:1021300058F319861A861B861C86AE01475F5F4FCF
:10214000602FC7010E941B0FD82E811117C08985EF
:102150009A85877091708130914081F48B859C8540
:1021600081609C878B87AE01475F5F4F602FC701FF
:102170000E946F0F813B29F0811102C00F5FD5CF04
:10218000D82E1D2DC1CFCF92DF92FF920F931F93B8
:10219000CF93DF9300D000D0CDB7DEB78C01F62E01
:1021A00019821A821B821C82462F61E10E94F20E64
:1021B0004F2D60E1C8010E94F20E4F2D64E0C8016E
:1021C0000E94460F83E0C82ED12CAE014F5F5F4FB7
:1021D0006F2DC8010E941B0F811114C089819A8143
:1021E000AB81BC819D7F83309140A041B10551F00E
:1021F00064E670E080E090E00E94C60181E0C81AC9
:10220000D10819F74F2D64E1C8010E94F20E4F2D3D
:1022100060E1C8010E94F20E64E170E080E090E0AD
:102220000E94C6010F900F900F900F90DF91CF91F9
:102230001F910F91FF90DF90CF9008952F923F92C2
:102240004F925F926F927F928F929F92AF92BF92C6
:10225000CF92DF92EF92FF920F931F93CF93DF9372
:10226000CDB7DEB7E8970FB6F894DEBF0FBECDBF8F
:10227000DC011A963C91311131C1522E842E962EDA
:102280003C01FC01E280F380D701ED91FC910190CB
:10229000F081E02D60E0C70109958C010097E1F421
:1022A000E6ED3E2E832DE8960FB6F894DEBF0FBE06
:1022B000CDBFDF91CF911F910F91FF90EF90DF90F5
:1022C000CF90BF90AF909F908F907F906F905F90D6
:1022D0004F903F902F900895FC01C080D18037ED42
:1022E000332EC114D104F1F25301F4E0AF0EB11C4E
:1022F000DC011196BC92AE9214965C92FE0131966E
:102300002F019F0148E050E060E0D30112968D91CB
:102310009C910E94710D382EF80114828111E1C048
:102320008D8121ED322E893009F0BCCF2980D70173
:10233000ED91FC910280F381E02D282D41E0692D83
:10234000C7010995F301828794ED392E882309F49A
:10235000A9CF98859583682F828193810E94950DDE
:10236000382ED801CD92DC92882371F0D701ED91FF
:10237000FC910480F581E02DD3011A966C91C70180
:102380000995F30112868ECF211006C0A114B10465
:1023900099F488ED382E86CF422D413208F040E284
:1023A00050E09201F3016285828193810E94710D58
:1023B000382E811177CFEACFD30112962D903C9021
:1023C00013971A961C91612FC1010E94A206FC016D
:1023D000892B09F465CF1283B182A08282E08383C6
:1023E0001F921F925F924F9258E0852E912C68E0C9
:1023F000A62EB12CD12CC12C79E2E72E00E026E0EC
:1024000040EA612FC1010E94B80B382E0F900F9047
:102410000F900F90811146CF8B81F301838782014A
:1024200020E048E050E06285828193810E944B0D5C
:10243000382E811137CF4B815C8120E0D3011A9671
:102440006C911A9712968D919C910E944B0D382E8B
:10245000811128CF498150E08E010F5D1F4F20E090
:10246000F3016285828193810E944B0D382E811188
:1024700019CF1F921F921F921F92912C812CB12C69
:10248000A12CE12C0E8129E040E0D3011A966C9139
:102490001A9712968D919C910E94B80B382E0F902E
:1024A0000F900F900F908111FDCE11E0F301838505
:1024B000811738F0412F68E0C3010E94460F1F5F6B
:1024C000F5CFD3010280F381E02DEA58FF4F8081E0
:1024D0008460808381E050968C93E4CE49ED342E65
:1024E000E1CED182C082DECE2F923F924F925F9298
:1024F0006F927F928F929F92AF92BF92CF92DF9214
:10250000EF92FF920F931F93CF93DF93CDB7DEB778
:10251000C358D1090FB6F894DEBF0FBECDBFDC01A2
:1025200016963C9119ED311115C0B22E042FA62E2E
:102530003C01FC0124803580108ED101ED91FC918D
:102540000190F081E02D60E0C10109952C01009718
:10255000E1F416ED812FCD57DF4F0FB6F894DEBFB3
:102560000FBECDBFDF91CF911F910F91FF90EF90E4
:10257000DF90CF90BF90AF909F908F907F906F90A3
:102580005F904F903F902F900895FC01E080F18084
:1025900017EDE114F104F1F29301295F3F4FEE963C
:1025A0003FAF2EAFEE9731832083B4829E01265930
:1025B0003F4F48E050E060E0D30114968D919C912C
:1025C0000E94710D182F811187C1AB961FADAB977B
:1025D000F201F182E082D101ED91FC910280F38160
:1025E000E02D202F40E06A2DC1010995F30186837B
:1025F000882309F46FC1E2969FADE2979087682F18
:10260000848195810E94950DF82ED101ED91FC9168
:10261000882379F0D20114961C920480F581E02D74
:10262000D30116966C91C1010995F30116821F2DF5
:1026300091CFD30116966C91D20114961C92019001
:10264000F081E02DC1010995009709F482CFFC01CA
:10265000B48211118CC0EC96FFADEC97CF57DF4FD1
:10266000F883C158D0402E0121E4420E511CC30111
:102670000296CE57DF4F99838883C258D04012010B
:1026800090E1290E311CCF57DF4FB881C158D0409F
:10269000FB1609F48AC02DE131E0F2013183208379
:1026A000CE57DF4F88819981C258D040938382836F
:1026B00014821186128615861786168610A211A21C
:1026C00012A210A63682258230862782348623867F
:1026D000D30114960D90BC91A02DC258DF4FB98341
:1026E000A883CE57D040F301F681C058DF4FF8835E
:1026F000C058D0408E010F5F1F4F2F2D49E050E092
:102700006F2FCD010E944B0D81112AC0AB80BC8080
:10271000450121E4A216B10418F040E4842E912C66
:102720005F924F9281E090E08C0F9D1F9F938F935B
:10273000D12CC12C32E0E32E0F2D26E040E8C0580A
:10274000DF4F6881C058D040C258DF4F88819981DF
:10275000CE57D0400E94B80B0F900F900F900F9063
:10276000D30152968C91823001F1F3948CCF1331C6
:1027700008F012E1412F50E09E0126593F4FD3014E
:1027800016966C91169714968D919C910E94710DDE
:10279000182F882309F45FCFD301ED91FC910480B9
:1027A000F581E02DC3010995D5CEF30112891230D0
:1027B00009F08EC0848195810681EE962EAD3FADE5
:1027C000EE97232B71F0602F0E94A206FC01892B4B
:1027D00041F00283EE968EAD9FADEE97918380839C
:1027E000138368EE73E080E090E00E94C6011F92C0
:1027F0001F921F921F92912C812CB12CA12CD12CB5
:10280000C12CE12CD3011F960C911F9729E040E0C9
:1028100016966C91169714968D919C910E94B80B08
:10282000182F0F900F900F900F908111B5CF68EE79
:1028300073E080E090E00E94C6011F921F921F92F9
:102840001F92F301018D2BE041E266818481958125
:102850000E94B80B182F0F900F900F900F908111BE
:102860009BCF1F921F921F921F9200E02AE041E22D
:10287000D30116966C91169714968D919C910E9497
:10288000B80BFE01EF5BFF4F83E291E09183808301
:10289000FF93EF93CE0101969F938F9380E4882E50
:1028A000912C90E8A92EB12C22E2E22E26E041E8FC
:1028B000F3016681848195810E94B80B81E0D30188
:1028C00057968C930FB6F894DEBF0FBECDBF42CEA5
:1028D00011ED62CF14ED3ECEF201F182E0825CCFC9
:1028E0000F931F93CF93DF93EC0188819981009719
:1028F00059F02A813B812617370730F081E0DF91BC
:10290000CF911F910F9108958B016F5F7F4F0E94B0
:102910008120009759F0998388831B830A832C8137
:102920003D81232B59F7FC011082E8CF80E0E7CFEF
:10293000EF92FF920F931F93CF93DF93EC017B01F4
:102940008A01BA010E94701428813981811114C052
:102950002115310519F0C9010E94F81F198218824A
:102960001D821C821B821A82CE01DF91CF911F91A2
:102970000F91FF90EF9008951D830C83B701C9015B
:102980000E947421F1CFFC0180819181009711F0A8
:102990000C94F81F0895FB0101900020E9F731978E
:1029A000AF01461B570B0C949814AF92BF92CF9275
:1029B000DF92EF92FF920F931F93CF93DF93EC017F
:1029C0006B015A0179012417350720F48B2D590129
:1029D000E42EF82E198218821B821A821D821C8214
:1029E0006CE971E0CE010E94CB14D60114960D91D2
:1029F0001C91A016B10628F5E016F10608F487012F
:102A0000D601ED91FC911197E00FF11FF08010823B
:102A10006D917C916A0D7B1D61157105F1F0FB01D3
:102A200001900020E9F73197AF01461B570BCE010B
:102A30000E949814F60180819181080F191FD80116
:102A4000FC92CE01DF91CF911F910F91FF90EF90FB
:102A5000DF90CF90BF90AF900895888199810097C3
:102A600011F00E94F81F198218821D821C821B829D
:102A70001A82E0CF6F927F928F929F92AF92BF9215
:102A8000CF92DF92EF92FF920F931F93CF93DF933A
:102A900000D0CDB7DEB77C01CDB6DEB6DC015796EF
:102AA0008C91811118C0912C892D0FB6F894DEBE3F
:102AB0000FBECDBE0F900F90DF91CF911F910F9160
:102AC000FF90EF90DF90CF90BF90AF909F908F904E
:102AD0007F906F9008950E94F801F7018388948891
:102AE000A588B688681979098A099B0997FDDBCF03
:102AF000ADB6BEB64285838590E08134910508F07D
:102B000045C09A83898389819A812DB73EB7281B56
:102B1000390B0FB6F8943EBF0FBE2DBF8DB79EB7D1
:102B200001968C019E012F5F3F4FD70116966C9145
:102B3000169714968D919C910E94810B982E81116D
:102B400013C029813A812330310570F0F701858562
:102B50009685009749F0DC01ED91FC910190F081A0
:102B6000E02D40E0B70109950FB6F894BEBE0FBE48
:102B7000ADBE0E94F801F701208D620F711D811D0D
:102B8000911D638B748B858B968B8ECF80E490E048
:102B9000B8CF1F920F920FB60F9211242F933F932D
:102BA0008F939F93AF93BF938091C5019091C6017E
:102BB000A091C701B091C8013091C40123E0230F57
:102BC0002D3758F50196A11DB11D2093C4018093A6
:102BD000C5019093C601A093C701B093C80180912D
:102BE000C9019091CA01A091CB01B091CC0101968D
:102BF000A11DB11D8093C9019093CA01A093CB017F
:102C0000B093CC01BF91AF919F918F913F912F9144
:102C10000F900FBE0F901F90189526E8230F029675
:102C2000A11DB11DD2CF1F920F920FB60F9211248A
:102C30008F939F938091E1009091E100937F909317
:102C4000E10083FF0FC01092E90091E09093EB0048
:102C50001092EC0092E39093ED001092CE0198E078
:102C60009093F00082FF22C093E09093E90090914E
:102C7000F200992319F09AE39093E8009091B6013D
:102C8000992341F09091B60191509093B601911122
:102C900001C05D9A9091CD01992341F09091CD01B1
:102CA00091509093CD01911101C0289A84FF18C0D2
:102CB0008091E2008E7E81608093E2008091E1004D
:102CC0008F7E8093E1008091B7018E7E806180933A
:102CD000B7019F918F910F900FBE0F901F90189585
:102CE00080FFF7CF8091E2008E7E80618093E200CA
:102CF0008091E1008E7E8093E1008091B7018E7E0D
:102D00008160E5CF1F920F920FB60F921124CF92E0
:102D1000DF92EF92FF920F931F932F933F934F9366
:102D20005F936F937F938F939F93AF93BF93EF9333
:102D3000FF93CF93DF93CDB7DEB76C97DEBFCDBFE8
:102D40001092E9008091E80083FF25C068E0CE0181
:102D500045960E94030382EF8093E8008D8987FFE8
:102D600039C09091E80090FFFCCF982F907609F041
:102D700034C19E894F89588D2F89F88C911131C0AB
:102D8000803861F58091B8018093F1001092F100D4
:102D90008EEF8093E8006C960FB6F894DEBF0FBEFE
:102DA000CDBFDF91CF91FF91EF91BF91AF919F91F7
:102DB0008F917F916F915F914F913F912F911F91D3
:102DC0000F91FF90EF90DF90CF900F900FBE0F907C
:102DD0001F9018959EEF9093E800C7CF1092F100D6
:102DE000D5CF913059F48111D3CF4130510581F6BF
:102DF0008091B8018D7F8093B801CACF933049F498
:102E00008111C6CF4130510519F68091B801826019
:102E1000F2CF953041F48091E80080FFFCCF20682C
:102E20002093E300B5CF963009F0A9C00B8D1C8D1F
:102E300022E01092E9001092B4011092B301F21254
:102E40002EC01092B2011092B1010E949B031F820A
:102E500099E09983FA8291E09E8390EA98879AEFAD
:102E600099872091B3013091B401275F3F4F3C8394
:102E70002B838D831092E9001092B4011092B3015C
:102E80001093B2010093B10149E050E0BE016F5FC1
:102E90007F4F80E00E9432020E949B0379CF109303
:102EA000B2010093B1010E941003DC0112960D9152
:102EB0001C910115110509F451C1D801ED91FC9146
:102EC0000480F581E02DBE016B5E7F4FC80109953E
:102ED000009709F03EC1F80100851185EACFF3E0C3
:102EE000FF120EC08F89882309F440C0823061F43C
:102EF00040E866E18DE091E00E94B418811148CF6E
:102F000081E28093EB0047CF813029F440E868E00C
:102F100084E091E0F1CF833099F70E941003DC0147
:102F20001296ED90FC908E010F5F1F4F6801E11427
:102F3000F10479F0D701ED91FC910680F781E02D45
:102F4000B801C7010995080F111DF701E084F1844C
:102F5000EECFD8011C92F60101900020E9F73197DD
:102F6000BF016C197D0940E0C601C6CF6EEE70E06E
:102F7000FB01449150E080E80E94320209CF973073
:102F800009F4BECF983021F481E08093F10000CFA6
:102F9000993009F0FDCE837009F0B2CFEDE0F1E099
:102FA00081E031E096E32191222371F08093E900E2
:102FB0003093EB00DF0111972C912093EC0090935C
:102FC000ED008F5F873079F78EE78093EA001092EB
:102FD000EA008F898093CE01DBCE8B8D9C8D109281
:102FE000E9001092B4011092B3019093B201809362
:102FF000B101898D811192C08E899D89913A49F4E0
:10300000813209F07DCF47E050E064E071E080E07C
:10301000B3CF913209F074CF833269F48F89988DE0
:10302000B0E0A0E08093000190930101A093020121
:10303000B0930301ADCE803269F48091E80082FF45
:10304000FCCF67E084E091E00E9403038BEF809364
:10305000E8009ECE823209F09BCE8F8980930B01CF
:10306000EEEFFFE7859194918B3F9C4D51F1E0E0AD
:10307000F8E08091040190910501A0910601B091C2
:103080000701803B9440A105B105F1F480910B014B
:1030900080FD1AC0EE3F8AE0F80789F587E797E7D9
:1030A00091838083809160008093B50188E19BE0EB
:1030B0000FB6F894A895809360000FBE90936000BF
:1030C00067CEEEEFFAE0D5CF8081918187379747C1
:1030D00009F05ECEA89580916000886180936000C1
:1030E0008091B50180936000EE3F2AE0F20789F0FD
:1030F0008091FE0A9091FF0A9183808349CE80815E
:1031000091818737980751F29093FF0A8093FE0AC6
:10311000C5CF1092FF0A1092FE0A3ACE0E94100309
:10312000DC0112960D911C910115110509F4E8CEF0
:10313000D801ED91FC910190F081E02DBE016B5E14
:103140007F4FC8010995811123CEF80100851185B3
:10315000EBCF181619060CF41BCED2CEF1E0FF12FD
:10316000BECE62EF70E004CFEF92FF920F931F93F9
:10317000CF93DF93F82E192FE62E042F81E0860FD0
:10318000880F0E94040283E00E940402CF2DD12FF9
:10319000EC0EFD2EF11CCE15DF05B9F007FF13C0B4
:1031A000FE0184910E940402182F80E00E94040214
:1031B000812321968111EFCFDF91CF911F910F9144
:1031C000FF90EF9008958881EDCF81E0F5CFCF9308
:1031D0001092D3011092D20188EE93E0A0E0B0E00B
:1031E0008093D4019093D501A093D601B093D701D9
:1031F00089E291E09093D1018093D0018FEF9FEF0E
:103200009093DD018093DC0180913F02811113C016
:1032100010923A02109239028DE991E090933C02AB
:1032200080933B028BE290E090933E0280933D02BC
:1032300081E080933F028091310281112AC0C1E078
:10324000C0932402C09325028AE292E09093270261
:103250008093260210922902109228028BE391E0BB
:10326000909321028093200210922C0210922B0244
:1032700010922E0210922D02C0932F02C0933002A2
:1032800081EC80932A020E9410030E941201C093D5
:103290003102E0912B02F0912C02309709F0D1C05D
:1032A00089E392E090932C0280932B0280912D026F
:1032B00090912E0220913D0230913E02820F931F89
:1032C00090932E0280932D0281E891E090938602E4
:1032D0008093850210928D0281E080938E0210927D
:1032E0008F0287E892E090938C0280938B02109279
:1032F000870288E0809388028CE380938902109291
:103300008A02E5E8F2E091E027E832E01586968748
:10331000178634872387359682E0E03DF807B1F7BA
:103320001092FB0281E1809348022BE631E030935A
:1033300075022093740225E832E0309377022093DF
:103340007602109284021092780288E080937902CB
:103350002CE320937A0290937B0280937C0284E09A
:1033600080937D0210927E0210927F021092800262
:10337000109281021092820210928302ABEDB2E0B1
:10338000FD0190E080E021913191232B09F062C092
:10339000880F991FFC01E552FD4F84E792E091836D
:1033A000808385E892E090935F0280935E0287E4D9
:1033B00091E090935B0280935A0285E691E09093AE
:1033C0005D0280935C0210926D0210926E02109268
:1033D0006F02109270021092710281E0809373026A
:1033E00080936C0210926B021092610288E08093CD
:1033F00062028CE380936302109264021092650271
:1034000084E0809366021092670210926802109224
:10341000690290E080E02D913D91232B09F5880F02
:10342000991FFC01E552FD4F8AE592E0918380836C
:103430008BE891E090934A0280934902CF910895DE
:10344000FC01808191810097D9F789E392E0918313
:1034500080832CCF01968031910509F094CFA1CFC4
:10346000019680319105B9F6E3CFCF93DF93CDB7C5
:10347000DEB768970FB6F894DEBF0FBECDBF789465
:1034800084B5826084BD84B5816084BD85B5826069
:1034900085BD85B5816085BD80916E00816080931A
:1034A0006E00109281008091810082608093810083
:1034B0008091810081608093810080918000816093
:1034C0008093800080919100826080939100809130
:1034D0009100816080939100809190008160809341
:1034E00090008091C10084608093C1008091C100F0
:1034F00082608093C1008091C10081608093C1008F
:103500008091C30081608093C3008091C00082607D
:103510008093C0008091C20081608093C20080913E
:103520007A00846080937A0080917A008260809330
:103530007A0080917A00816080937A0080917A008D
:10354000806880937A001092CE011092B801109298
:10355000B7018091D70081608093D70080EA809383
:10356000D80089B5806189BD89B5826089BD09B4FB
:1035700000FEFDCF61E070E080E090E00E94C601B7
:103580008091D8008F7C80618093D8008091E0008A
:10359000807F8093E0008091E1008E7E8093E10047
:1035A0008DE08093E200559A209A8FEF9FEF9093E1
:1035B000DD018093DC0181E090E0A0E0B0E0809349
:1035C000D4019093D501A093D601B093D701269A48
:1035D0000E9471081FB7F8948091B90181115AC0F7
:1035E00040E751E0FA0194912FE831E0F90184912C
:1035F000E92FF0E0EE0FFF1FEF5AFE4FA591B491B7
:103600009C91892309F037C0E5E3F1E09491F90139
:103610002491FA018491882309F42DC09923E9F0BB
:1036200091509F30D0F4E92FF0E0E75EF44E0C9417
:10363000561F8C1B901B281B841B881B2D1B2D1BAE
:103640002D1B931B991B9D1BA11BA71B2D1BAB1B8C
:10365000909180009F7790938000E82FF0E0EE0F2C
:10366000FF1FED5BFE4FA591B4918FB7F8949C912D
:10367000292B2C938FBF81E10E9458018CB580616A
:103680008CBD8CB580648CBD8FE00E94580180E1B8
:103690000E9458018091B9018F5F8093B9011FBFCB
:1036A000209A289A259868E188E80E94060960E235
:1036B00088E70E94060960E088E70E94060910E09A
:1036C00000E088E60E94CC090F5F1F4F80FF49C0D1
:1036D00061EC88ED0E94060960E680ED0E94060913
:1036E00064E088EE0E94060988EE0E94CC0982FF01
:1036F000FBCF0E94A80A60E288EC0E94060961E004
:1037000080E80E94060931C0909180009F7DA3CF80
:1037100090918000977F9FCF94B59F7794BD9DCF68
:1037200094B59F7DFBCF909190009F7790939000F0
:1037300094CF909190009F7DF9CF90919000977FCA
:10374000F5CF9091C0009F779093C00086CF909165
:10375000C0009F7DF9CF9091C200977F9093C200E7
:103760007CCF0F3F100709F0ACCF89E492E0909333
:103770006802809367021092470240E060E080E0B8
:103780000E94240383E0A1ECB1E01D928A95E9F741
:1037900083B1182F107285FD0CC088EC0E94CC09F3
:1037A00085FF03C00E94A80A10E2612F88EC0E94E6
:1037B00006098091CF01813009F45CC008F45EC035
:1037C000823029F0833009F461C010E017C010E0A6
:1037D00080914802807F803189F40E94F80168530B
:1037E0007F4F8F4F9F4F6093BA017093BB018093BF
:1037F000BC019093BD0180E2809348028BEDC82EFE
:1038000082E0D82E7601F701819191917F01009796
:1038100039F0DC01ED91FC910680F781E02D0995EE
:10382000BBEFEB16B2E0FB0671F7809148028034E3
:1038300009F499C068F5803209F47FC0803309F437
:103840008CC0813109F042C01092FB02F6018191D7
:1038500091916F01009739F0DC01ED91FC910480AA
:10386000F581E02D0995EC14FD0481F782E1809348
:1038700048022CC083E180934802A7CF8091480280
:10388000807F803109F4A1CF81E1F5CF11E0A0CF95
:10389000813509F477C0803809F487C08035B1F4E8
:1038A00088EC0E94CC0986FF11C081E58093480214
:1038B0000E94F8016C5E7F4F8F4F9F4F6093BA015B
:1038C0007093BB018093BC019093BD0180ED91E0AA
:1038D0000E947C04181619060CF051C21C8A1B8A1F
:1038E0001E8A1D8A188E1F8A6CE971E0CE014396EC
:1038F0000E94CB140E9426040F89188D97FD65C085
:103900008A30910509F461C089831A820F5F1F4FC5
:10391000B801CE0143960E947014882359F32B8975
:103920003C898F89988DBE016F5F7F4F820F931FF7
:103930000E947421188F0F8BDDCF0E94F801009137
:10394000BA011091BB012091BC013091BD01601BF7
:10395000710B820B930B97FDB9CF61E088EE0E944B
:10396000060980E484CF88EE0E94CC0980FDAECFAA
:1039700088ED0E94CC09682F686088ED0E940609D6
:1039800080E575CF0E94F801C090BA01D090BB01CC
:10399000E090BC01F090BD016C197D098E099F0972
:1039A00097FD94CF80E880934802212F40E060E0AB
:1039B00085E892E00E94C50D882329F0823D09F434
:1039C00085CF80EA54CF80E952CF012B99F10B8942
:1039D0001C896BE971E0C8010E946B21892BA1F45D
:1039E000B1E0B093470240E060E080E00E94240331
:1039F0001092470240E060E080E00E942403CE0184
:103A000043960E94C31462CF6DE971E0C8010E9421
:103A10006B21892B21F481E00E948003F0CF6FE9B4
:103A200071E0C8010E946B21892B21F481E00E9482
:103A30008E03E5CF1A8219821C821B821E821D8290
:103A400061EA71E0CE0101960E94CB144D815E8146
:103A50008F89988D8417950770F08B899C890097C2
:103A600051F069817A816115710529F00E947B21ED
:103A700011E0892B09F010E0CE0101960E94C314D9
:103A8000112309F4BCCF1E861D86188A1F861A8A48
:103A9000198A6B897C896115710531F04F89588DC0
:103AA000CE010D960E9498141A8219821C821B82E4
:103AB0001E821D826CE971E0CE0101960E94CB143A
:103AC00018861F821A8619861C861B8661EA71E099
:103AD000CE0107960E94CB14A988BA88A114B1041C
:103AE00009F461C08B849C848114910409F45BC047
:103AF000ED80FE80E818F9080D851E85E114F104BB
:103B0000A1F46F817885C8010E9489218C010097FA
:103B100009F449C069817A814D815E810E943E210C
:103B20008D819E81080F191FECCFF7FC0FC06F80AD
:103B300078846501C801B3010E948921009709F4C6
:103B4000A0C0880D991DCE0CDF1CF5CF68016F81D8
:103B50007885C8010E9489215C01009701F14C0120
:103B6000801A910AA401B801C6010E943E21C80C26
:103B7000D91C69817A814D815E81C6010E943E21F6
:103B80008D819E81C80ED91E0B851C850A0D1B1DBB
:103B900089899A898E0D9F1D9A8B898BD8CFB80100
:103BA000C6010E947421CE0107960E94C314CE0163
:103BB00001960E94C31489899A89892B61F0ED844A
:103BC000FE846CE270E0C7010E9460218C010E1936
:103BD0001F09892B11F40FEF1FEF980150E040E00F
:103BE000BE01635F7F4FCE0101960E94D51489818B
:103BF0009A81009709F4BBC00E94E31E7B01CE01AD
:103C000001960E94C31429893A89A8014F5F5F4F2A
:103C1000BE01635F7F4FCE0101960E94D51489815A
:103C20009A81009709F4A7C00E94E31E8B01CE0180
:103C300001960E94C3148091BE0161E8B1E8EB16C1
:103C4000BFEFFB0634F0B7016038710514F06FE781
:103C500070E0680F6093BE018091BF0161E8013898
:103C6000EFEF1E0734F0B8010038110514F06FE7CC
:103C700070E0680F6093BF01CE010D960E94C314DF
:103C8000BECEAC14BD0409F48ECF8F8598898C15F7
:103C90009D0568F4B6016F5F7F4FC8010E948120C7
:103CA000009709F480CF9E878D87D88ACF860989AF
:103CB0001A890150110917FD76CF48016B847C8465
:103CC0006114710409F46FCFA988BA88A114B104F2
:103CD00009F469CFA614B70408F465CF0A151B05CB
:103CE00020F04501E1E08E1A9108CD84DE842F801A
:103CF0003884C6010FEF1FEF2601480C591C4816E7
:103D0000590678F0B1010E948921009751F09C0179
:103D10002C193D098216930608F498010196890131
:103D2000EECF17FD40CF600E711EC601860D971DA8
:103D3000A50146195709BC018E0D9F1D0E94472100
:103D400089899A898E0D9F1D9A8B898B2D853E8539
:103D5000820F931FDC011C928D859E8569817A817B
:103D60004D815E81800F911F0E943E21A2CF60E0B5
:103D700070E0CB0143CF60E070E0CB0157CF809182
:103D8000BE016091BF014091C001811104C0611169
:103D900002C0442389F00E942403EEEBF1E083E0AB
:103DA000DF011D928A95E9F780E090E0892B09F404
:103DB000E9CC0E940000E6CC4091C3016091C201B1
:103DC0008091C101E8CF1F93FC0199278827BC018E
:103DD000E89411911032E9F3193010F01E30C8F355
:103DE0001B3251F01D3249F4689406C00E940A1F2C
:103DF000610F711D811D911D119110531A30B0F387
:103E00003EF490958095709561957F4F8F4F9F4FB1
:103E10001F910895592F482F372F262F660F771F90
:103E2000881F991F660F771F881F991F620F731FC6
:103E3000841F951F660F771F881F991F08952F9263
:103E40003F924F925F926F927F928F929F92AF922A
:103E5000BF92CF92DF92EF92FF920F931F93CF9377
:103E6000DF93CDB7DEB7CA1BDB0B0FB6F894DEBF0E
:103E70000FBECDBF09942A88398848885F846E8434
:103E80007D848C849B84AA84B984C884DF80EE807E
:103E9000FD800C811B81AA81B981CE0FD11D0FB687
:103EA000F894DEBF0FBECDBFED010895EE0FFF1FEA
:103EB0000590F491E02D09940F931F93CF93DF9316
:103EC0008230910510F482E090E0E091FE02F091E2
:103ED000FF0230E020E0B0E0A0E0309799F4211537
:103EE000310509F44AC0281B390B24303105D8F5B7
:103EF0008A819B816115710589F1FB01938382831E
:103F0000FE0111C040815181028113814817590778
:103F1000E0F04817590799F4109761F012960C9346
:103F2000129713961C933296CF01DF91CF911F9178
:103F30000F9108950093FE021093FF02F4CF211514
:103F4000310551F04217530738F0A901DB019A01FE
:103F5000BD01DF01F801C1CFEF01F9CF9093FF025E
:103F60008093FE02CDCFFE01E20FF31F8193919368
:103F70002250310939832883D7CF2091FC02309118
:103F8000FD02232B41F4209115013091160130934D
:103F9000FD022093FC0220911301309114012115A0
:103FA000310541F42DB73EB74091170150911801EA
:103FB000241B350BE091FC02F091FD02E217F307A0
:103FC000A0F42E1B3F0B2817390778F0AC014E5F89
:103FD0005F4F2417350748F04E0F5F1F5093FD02C7
:103FE0004093FC02819391939FCFF0E0E0E09CCF5F
:103FF000CF93DF930097E9F0FC013297138212828E
:10400000A091FE02B091FF02ED0130E020E0109798
:10401000A1F420813181820F931F2091FC02309105
:10402000FD022817390709F061C0F093FD02E09303
:10403000FC02DF91CF910895EA01CE17DF07E8F582
:104040004A815B819E0141155105B1F7E901FB836E
:10405000EA8349915991C40FD51FEC17FD0761F40C
:10406000808191810296840F951FE901998388834D
:10407000828193819B838A83F0E0E0E012968D91A8
:104080009C9113970097B9F52D913C911197CD0113
:104090000296820F931F2091FC023091FD02281797
:1040A000390739F6309751F51092FF021092FE024F
:1040B000B093FD02A093FC02BCCFD383C2834081A6
:1040C0005181840F951FC817D90761F44E5F5F4F68
:1040D00088819981480F591F518340838A819B8130
:1040E000938382832115310509F0B0CFF093FF024D
:1040F000E093FE029ECFFD01DC01C0CF138212824D
:10410000D7CFB0E0A0E0E7E8F0E20C94211F8C01EB
:10411000009751F4CB010E945C1F8C01C801CDB700
:10412000DEB7E0E10C943D1FFC01E60FF71F9C0198
:1041300022503109E217F30708F49DC0D901CD914F
:10414000DC911197C617D70798F0C530D10530F329
:10415000CE0104978617970708F3C61BD70B229743
:10416000C193D1936D937C93CF010E94F81FD6CF5A
:104170005B01AC1ABD0A4C018C0E9D1EA091FE0283
:10418000B091FF02512C412CF12CE12C109731F50C
:104190008091FC029091FD028815990509F05CC0A0
:1041A0004616570608F058C08091130190911401EB
:1041B000009741F48DB79EB74091170150911801B7
:1041C000841B950BE817F90708F055C0F093FD0222
:1041D000E093FC02F90171836083A0CF8D919C91E3
:1041E000119712966C90129713967C901397A815BE
:1041F000B90559F56C0142E0C40ED11CCA14DB04A8
:1042000020F1AC014A195B09DA011296159780F08A
:104210006282738251834083D9016D937C93E11450
:10422000F10471F0D7011396FC93EE93129776CFB9
:1042300022968C0F9D1FF90191838083F301EFCFAC
:10424000F093FF02E093FE0269CF4816590608F486
:104250002C017D01D3019ACFCB010E945C1F7C0110
:10426000009749F0AE01B8010E943E21C8010E94AA
:10427000F81F870153CF10E000E050CFFB01DC01B5
:1042800002C001900D9241505040D8F70895681730
:10429000790768F4FB01DC01E40FF51FA40FB51FDB
:1042A00002C002900E9241505040D8F708950C94ED
:1042B0003E21DC0101C06D9341505040E0F708956C
:1042C000FC018191861721F08823D9F79927089559
:1042D0003197CF010895FB01DC018D910190801988
:1042E0000110D9F3990B0895FB01DC0101900D92A7
:1042F0000020E1F70895FB01DC014150504030F00F
:104300008D910190801919F40020B9F7881B990B41
:104310000895FB0151915523A9F0BF01DC014D9196
:1043200045174111E1F759F4CD010190002049F002
:104330004D9140154111C9F3FB014111EFCF81E0CF
:0A43400090E001970895F894FFCF74
:10434A00FFFFFFFF00E100000000000000C18081C4
:10435A0000000000000003800000000000BB06000F
:10436A00000000FE0700000000E203CC030304F88B
:10437A00037C04080458040000000096040F05D4C6
:10438A0004B904000000007412DB0854083A1551FD
:10439A0008DA08D8084C0847083E0873083B08FFA3
:1043AA0007FEFF00003108000000001E11DB085A5A
:1043BA00051D108105C310D8087C05B90600000048
:1043CA0000A2064D062B06000000008F08D708D76A
:1043DA0008D708D708D708D708D70863007200702B
:0443EA00006D000062
:00000001FF
